{
  "abi": [
    {
      "anonymous": false,
      "inputs": [
        {
          "indexed": false,
          "internalType": "address",
          "name": "",
          "type": "address"
        }
      ],
      "name": "QuestComplete",
      "type": "event"
    },
    {
      "inputs": [
        {
          "internalType": "address",
          "name": "a",
          "type": "address"
        }
      ],
      "name": "completeQuest",
      "outputs": [],
      "stateMutability": "nonpayable",
      "type": "function"
    }
  ],
  "bytecode": {
    "object": "0x608060405234801561001057600080fd5b5060fa8061001f6000396000f3fe6080604052348015600f57600080fd5b506004361060285760003560e01c806377b37fe714602d575b600080fd5b603c60383660046096565b603e565b005b6001600160a01b03811660008181526020818152604091829020805460ff1916600117905590519182527fadf42909b380f9140633e3b84d758a4ffd81c45e18e5647f7636a8674012e9ed910160405180910390a150565b60006020828403121560a757600080fd5b81356001600160a01b038116811460bd57600080fd5b939250505056fea2646970667358221220481a668a4c2fc864b57402528cee30b2a04a894f4fe0cd3d52c4e8faea755a8864736f6c634300080e0033",
    "linkReferences": {}
  },
  "methodIdentifiers": {
    "completeQuest(address)": "77b37fe7"
  },
  "id": 0
}